{
	"IfElse.sol": {
		"IfElse": {
			"abi": [
				{
					"inputs": [
						{
							"internalType": "int256",
							"name": "_x",
							"type": "int256"
						}
					],
					"name": "example",
					"outputs": [
						{
							"internalType": "int256",
							"name": "",
							"type": "int256"
						}
					],
					"stateMutability": "pure",
					"type": "function"
				},
				{
					"inputs": [
						{
							"internalType": "int256",
							"name": "_x",
							"type": "int256"
						}
					],
					"name": "ternary",
					"outputs": [
						{
							"internalType": "uint256",
							"name": "",
							"type": "uint256"
						}
					],
					"stateMutability": "pure",
					"type": "function"
				}
			],
			"devdoc": {
				"kind": "dev",
				"methods": {},
				"version": 1
			},
			"evm": {
				"assembly": "    /* \"IfElse.sol\":70:348  contract IfElse {\r... */\n  mstore(0x40, 0x80)\n  callvalue\n  dup1\n  iszero\n  tag_1\n  jumpi\n  0x00\n  dup1\n  revert\ntag_1:\n  pop\n  dataSize(sub_0)\n  dup1\n  dataOffset(sub_0)\n  0x00\n  codecopy\n  0x00\n  return\nstop\n\nsub_0: assembly {\n        /* \"IfElse.sol\":70:348  contract IfElse {\r... */\n      mstore(0x40, 0x80)\n      callvalue\n      dup1\n      iszero\n      tag_1\n      jumpi\n      0x00\n      dup1\n      revert\n    tag_1:\n      pop\n      jumpi(tag_2, lt(calldatasize, 0x04))\n      shr(0xe0, calldataload(0x00))\n      dup1\n      0x0eeec544\n      eq\n      tag_3\n      jumpi\n      dup1\n      0xf821d152\n      eq\n      tag_4\n      jumpi\n    tag_2:\n      0x00\n      dup1\n      revert\n        /* \"IfElse.sol\":93:246  function example(int _x) external pure returns(int){\r... */\n    tag_3:\n      tag_5\n      0x04\n      dup1\n      calldatasize\n      sub\n      dup2\n      add\n      swap1\n      tag_6\n      swap2\n      swap1\n      tag_7\n      jump\t// in\n    tag_6:\n      tag_8\n      jump\t// in\n    tag_5:\n      mload(0x40)\n      tag_9\n      swap2\n      swap1\n      tag_10\n      jump\t// in\n    tag_9:\n      mload(0x40)\n      dup1\n      swap2\n      sub\n      swap1\n      return\n        /* \"IfElse.sol\":252:345  function ternary(int _x) external pure returns(uint){\r... */\n    tag_4:\n      tag_11\n      0x04\n      dup1\n      calldatasize\n      sub\n      dup2\n      add\n      swap1\n      tag_12\n      swap2\n      swap1\n      tag_7\n      jump\t// in\n    tag_12:\n      tag_13\n      jump\t// in\n    tag_11:\n      mload(0x40)\n      tag_14\n      swap2\n      swap1\n      tag_15\n      jump\t// in\n    tag_14:\n      mload(0x40)\n      dup1\n      swap2\n      sub\n      swap1\n      return\n        /* \"IfElse.sol\":93:246  function example(int _x) external pure returns(int){\r... */\n    tag_8:\n        /* \"IfElse.sol\":140:143  int */\n      0x00\n        /* \"IfElse.sol\":163:165  20 */\n      0x14\n        /* \"IfElse.sol\":158:160  _x */\n      dup3\n        /* \"IfElse.sol\":158:165  _x > 20 */\n      sgt\n        /* \"IfElse.sol\":155:238  if(_x > 20) return 1;\r... */\n      iszero\n      tag_17\n      jumpi\n        /* \"IfElse.sol\":174:175  1 */\n      0x01\n        /* \"IfElse.sol\":167:175  return 1 */\n      swap1\n      pop\n      jump(tag_16)\n        /* \"IfElse.sol\":155:238  if(_x > 20) return 1;\r... */\n    tag_17:\n        /* \"IfElse.sol\":201:203  20 */\n      0x14\n        /* \"IfElse.sol\":195:197  _x */\n      dup3\n        /* \"IfElse.sol\":195:203  _x == 20 */\n      eq\n        /* \"IfElse.sol\":191:238  if (_x == 20 ) return 2;\r... */\n      iszero\n      tag_19\n      jumpi\n        /* \"IfElse.sol\":213:214  2 */\n      0x02\n        /* \"IfElse.sol\":206:214  return 2 */\n      swap1\n      pop\n      jump(tag_16)\n        /* \"IfElse.sol\":191:238  if (_x == 20 ) return 2;\r... */\n    tag_19:\n        /* \"IfElse.sol\":237:238  3 */\n      0x03\n        /* \"IfElse.sol\":230:238  return 3 */\n      swap1\n      pop\n        /* \"IfElse.sol\":93:246  function example(int _x) external pure returns(int){\r... */\n    tag_16:\n      swap2\n      swap1\n      pop\n      jump\t// out\n        /* \"IfElse.sol\":252:345  function ternary(int _x) external pure returns(uint){\r... */\n    tag_13:\n        /* \"IfElse.sol\":299:303  uint */\n      0x00\n        /* \"IfElse.sol\":327:329  10 */\n      0x0a\n        /* \"IfElse.sol\":322:324  _x */\n      dup3\n        /* \"IfElse.sol\":322:329  _x < 10 */\n      slt\n        /* \"IfElse.sol\":322:337  _x < 10 ? 1 : 2 */\n      tag_22\n      jumpi\n        /* \"IfElse.sol\":336:337  2 */\n      0x02\n        /* \"IfElse.sol\":322:337  _x < 10 ? 1 : 2 */\n      jump(tag_23)\n    tag_22:\n        /* \"IfElse.sol\":332:333  1 */\n      0x01\n        /* \"IfElse.sol\":322:337  _x < 10 ? 1 : 2 */\n    tag_23:\n        /* \"IfElse.sol\":315:337  return _x < 10 ? 1 : 2 */\n      0xff\n      and\n      swap1\n      pop\n        /* \"IfElse.sol\":252:345  function ternary(int _x) external pure returns(uint){\r... */\n      swap2\n      swap1\n      pop\n      jump\t// out\n        /* \"#utility.yul\":7:144   */\n    tag_25:\n        /* \"#utility.yul\":52:57   */\n      0x00\n        /* \"#utility.yul\":90:96   */\n      dup2\n        /* \"#utility.yul\":77:97   */\n      calldataload\n        /* \"#utility.yul\":68:97   */\n      swap1\n      pop\n        /* \"#utility.yul\":106:138   */\n      tag_27\n        /* \"#utility.yul\":132:137   */\n      dup2\n        /* \"#utility.yul\":106:138   */\n      tag_28\n      jump\t// in\n    tag_27:\n        /* \"#utility.yul\":7:144   */\n      swap3\n      swap2\n      pop\n      pop\n      jump\t// out\n        /* \"#utility.yul\":150:477   */\n    tag_7:\n        /* \"#utility.yul\":208:214   */\n      0x00\n        /* \"#utility.yul\":257:259   */\n      0x20\n        /* \"#utility.yul\":245:254   */\n      dup3\n        /* \"#utility.yul\":236:243   */\n      dup5\n        /* \"#utility.yul\":232:255   */\n      sub\n        /* \"#utility.yul\":228:260   */\n      slt\n        /* \"#utility.yul\":225:344   */\n      iszero\n      tag_30\n      jumpi\n        /* \"#utility.yul\":263:342   */\n      tag_31\n      tag_32\n      jump\t// in\n    tag_31:\n        /* \"#utility.yul\":225:344   */\n    tag_30:\n        /* \"#utility.yul\":383:384   */\n      0x00\n        /* \"#utility.yul\":408:460   */\n      tag_33\n        /* \"#utility.yul\":452:459   */\n      dup5\n        /* \"#utility.yul\":443:449   */\n      dup3\n        /* \"#utility.yul\":432:441   */\n      dup6\n        /* \"#utility.yul\":428:450   */\n      add\n        /* \"#utility.yul\":408:460   */\n      tag_25\n      jump\t// in\n    tag_33:\n        /* \"#utility.yul\":398:460   */\n      swap2\n      pop\n        /* \"#utility.yul\":354:470   */\n      pop\n        /* \"#utility.yul\":150:477   */\n      swap3\n      swap2\n      pop\n      pop\n      jump\t// out\n        /* \"#utility.yul\":483:598   */\n    tag_34:\n        /* \"#utility.yul\":568:591   */\n      tag_36\n        /* \"#utility.yul\":585:590   */\n      dup2\n        /* \"#utility.yul\":568:591   */\n      tag_37\n      jump\t// in\n    tag_36:\n        /* \"#utility.yul\":563:566   */\n      dup3\n        /* \"#utility.yul\":556:592   */\n      mstore\n        /* \"#utility.yul\":483:598   */\n      pop\n      pop\n      jump\t// out\n        /* \"#utility.yul\":604:722   */\n    tag_38:\n        /* \"#utility.yul\":691:715   */\n      tag_40\n        /* \"#utility.yul\":709:714   */\n      dup2\n        /* \"#utility.yul\":691:715   */\n      tag_41\n      jump\t// in\n    tag_40:\n        /* \"#utility.yul\":686:689   */\n      dup3\n        /* \"#utility.yul\":679:716   */\n      mstore\n        /* \"#utility.yul\":604:722   */\n      pop\n      pop\n      jump\t// out\n        /* \"#utility.yul\":728:946   */\n    tag_10:\n        /* \"#utility.yul\":819:823   */\n      0x00\n        /* \"#utility.yul\":857:859   */\n      0x20\n        /* \"#utility.yul\":846:855   */\n      dup3\n        /* \"#utility.yul\":842:860   */\n      add\n        /* \"#utility.yul\":834:860   */\n      swap1\n      pop\n        /* \"#utility.yul\":870:939   */\n      tag_43\n        /* \"#utility.yul\":936:937   */\n      0x00\n        /* \"#utility.yul\":925:934   */\n      dup4\n        /* \"#utility.yul\":921:938   */\n      add\n        /* \"#utility.yul\":912:918   */\n      dup5\n        /* \"#utility.yul\":870:939   */\n      tag_34\n      jump\t// in\n    tag_43:\n        /* \"#utility.yul\":728:946   */\n      swap3\n      swap2\n      pop\n      pop\n      jump\t// out\n        /* \"#utility.yul\":952:1174   */\n    tag_15:\n        /* \"#utility.yul\":1045:1049   */\n      0x00\n        /* \"#utility.yul\":1083:1085   */\n      0x20\n        /* \"#utility.yul\":1072:1081   */\n      dup3\n        /* \"#utility.yul\":1068:1086   */\n      add\n        /* \"#utility.yul\":1060:1086   */\n      swap1\n      pop\n        /* \"#utility.yul\":1096:1167   */\n      tag_45\n        /* \"#utility.yul\":1164:1165   */\n      0x00\n        /* \"#utility.yul\":1153:1162   */\n      dup4\n        /* \"#utility.yul\":1149:1166   */\n      add\n        /* \"#utility.yul\":1140:1146   */\n      dup5\n        /* \"#utility.yul\":1096:1167   */\n      tag_38\n      jump\t// in\n    tag_45:\n        /* \"#utility.yul\":952:1174   */\n      swap3\n      swap2\n      pop\n      pop\n      jump\t// out\n        /* \"#utility.yul\":1261:1337   */\n    tag_37:\n        /* \"#utility.yul\":1297:1304   */\n      0x00\n        /* \"#utility.yul\":1326:1331   */\n      dup2\n        /* \"#utility.yul\":1315:1331   */\n      swap1\n      pop\n        /* \"#utility.yul\":1261:1337   */\n      swap2\n      swap1\n      pop\n      jump\t// out\n        /* \"#utility.yul\":1343:1420   */\n    tag_41:\n        /* \"#utility.yul\":1380:1387   */\n      0x00\n        /* \"#utility.yul\":1409:1414   */\n      dup2\n        /* \"#utility.yul\":1398:1414   */\n      swap1\n      pop\n        /* \"#utility.yul\":1343:1420   */\n      swap2\n      swap1\n      pop\n      jump\t// out\n        /* \"#utility.yul\":1549:1666   */\n    tag_32:\n        /* \"#utility.yul\":1658:1659   */\n      0x00\n        /* \"#utility.yul\":1655:1656   */\n      dup1\n        /* \"#utility.yul\":1648:1660   */\n      revert\n        /* \"#utility.yul\":1672:1792   */\n    tag_28:\n        /* \"#utility.yul\":1744:1767   */\n      tag_54\n        /* \"#utility.yul\":1761:1766   */\n      dup2\n        /* \"#utility.yul\":1744:1767   */\n      tag_37\n      jump\t// in\n    tag_54:\n        /* \"#utility.yul\":1737:1742   */\n      dup2\n        /* \"#utility.yul\":1734:1768   */\n      eq\n        /* \"#utility.yul\":1724:1786   */\n      tag_55\n      jumpi\n        /* \"#utility.yul\":1782:1783   */\n      0x00\n        /* \"#utility.yul\":1779:1780   */\n      dup1\n        /* \"#utility.yul\":1772:1784   */\n      revert\n        /* \"#utility.yul\":1724:1786   */\n    tag_55:\n        /* \"#utility.yul\":1672:1792   */\n      pop\n      jump\t// out\n\n    auxdata: 0xa264697066735822122022d24440f0705a1225032aff545fde333fb3b3ad90c7cdd2a1d4e8632e7dd55764736f6c63430008070033\n}\n",
				"bytecode": {
					"linkReferences": {},
					"object": "608060405234801561001057600080fd5b506101e5806100206000396000f3fe608060405234801561001057600080fd5b50600436106100365760003560e01c80630eeec5441461003b578063f821d1521461006b575b600080fd5b610055600480360381019061005091906100fe565b61009b565b6040516100629190610149565b60405180910390f35b610085600480360381019061008091906100fe565b6100cb565b6040516100929190610164565b60405180910390f35b600060148213156100af57600190506100c6565b60148214156100c157600290506100c6565b600390505b919050565b6000600a82126100dc5760026100df565b60015b60ff169050919050565b6000813590506100f881610198565b92915050565b60006020828403121561011457610113610193565b5b6000610122848285016100e9565b91505092915050565b6101348161017f565b82525050565b61014381610189565b82525050565b600060208201905061015e600083018461012b565b92915050565b6000602082019050610179600083018461013a565b92915050565b6000819050919050565b6000819050919050565b600080fd5b6101a18161017f565b81146101ac57600080fd5b5056fea264697066735822122022d24440f0705a1225032aff545fde333fb3b3ad90c7cdd2a1d4e8632e7dd55764736f6c63430008070033",
					"opcodes": "PUSH1 0x80 PUSH1 0x40 MSTORE CALLVALUE DUP1 ISZERO PUSH2 0x10 JUMPI PUSH1 0x0 DUP1 REVERT JUMPDEST POP PUSH2 0x1E5 DUP1 PUSH2 0x20 PUSH1 0x0 CODECOPY PUSH1 0x0 RETURN INVALID PUSH1 0x80 PUSH1 0x40 MSTORE CALLVALUE DUP1 ISZERO PUSH2 0x10 JUMPI PUSH1 0x0 DUP1 REVERT JUMPDEST POP PUSH1 0x4 CALLDATASIZE LT PUSH2 0x36 JUMPI PUSH1 0x0 CALLDATALOAD PUSH1 0xE0 SHR DUP1 PUSH4 0xEEEC544 EQ PUSH2 0x3B JUMPI DUP1 PUSH4 0xF821D152 EQ PUSH2 0x6B JUMPI JUMPDEST PUSH1 0x0 DUP1 REVERT JUMPDEST PUSH2 0x55 PUSH1 0x4 DUP1 CALLDATASIZE SUB DUP2 ADD SWAP1 PUSH2 0x50 SWAP2 SWAP1 PUSH2 0xFE JUMP JUMPDEST PUSH2 0x9B JUMP JUMPDEST PUSH1 0x40 MLOAD PUSH2 0x62 SWAP2 SWAP1 PUSH2 0x149 JUMP JUMPDEST PUSH1 0x40 MLOAD DUP1 SWAP2 SUB SWAP1 RETURN JUMPDEST PUSH2 0x85 PUSH1 0x4 DUP1 CALLDATASIZE SUB DUP2 ADD SWAP1 PUSH2 0x80 SWAP2 SWAP1 PUSH2 0xFE JUMP JUMPDEST PUSH2 0xCB JUMP JUMPDEST PUSH1 0x40 MLOAD PUSH2 0x92 SWAP2 SWAP1 PUSH2 0x164 JUMP JUMPDEST PUSH1 0x40 MLOAD DUP1 SWAP2 SUB SWAP1 RETURN JUMPDEST PUSH1 0x0 PUSH1 0x14 DUP3 SGT ISZERO PUSH2 0xAF JUMPI PUSH1 0x1 SWAP1 POP PUSH2 0xC6 JUMP JUMPDEST PUSH1 0x14 DUP3 EQ ISZERO PUSH2 0xC1 JUMPI PUSH1 0x2 SWAP1 POP PUSH2 0xC6 JUMP JUMPDEST PUSH1 0x3 SWAP1 POP JUMPDEST SWAP2 SWAP1 POP JUMP JUMPDEST PUSH1 0x0 PUSH1 0xA DUP3 SLT PUSH2 0xDC JUMPI PUSH1 0x2 PUSH2 0xDF JUMP JUMPDEST PUSH1 0x1 JUMPDEST PUSH1 0xFF AND SWAP1 POP SWAP2 SWAP1 POP JUMP JUMPDEST PUSH1 0x0 DUP2 CALLDATALOAD SWAP1 POP PUSH2 0xF8 DUP2 PUSH2 0x198 JUMP JUMPDEST SWAP3 SWAP2 POP POP JUMP JUMPDEST PUSH1 0x0 PUSH1 0x20 DUP3 DUP5 SUB SLT ISZERO PUSH2 0x114 JUMPI PUSH2 0x113 PUSH2 0x193 JUMP JUMPDEST JUMPDEST PUSH1 0x0 PUSH2 0x122 DUP5 DUP3 DUP6 ADD PUSH2 0xE9 JUMP JUMPDEST SWAP2 POP POP SWAP3 SWAP2 POP POP JUMP JUMPDEST PUSH2 0x134 DUP2 PUSH2 0x17F JUMP JUMPDEST DUP3 MSTORE POP POP JUMP JUMPDEST PUSH2 0x143 DUP2 PUSH2 0x189 JUMP JUMPDEST DUP3 MSTORE POP POP JUMP JUMPDEST PUSH1 0x0 PUSH1 0x20 DUP3 ADD SWAP1 POP PUSH2 0x15E PUSH1 0x0 DUP4 ADD DUP5 PUSH2 0x12B JUMP JUMPDEST SWAP3 SWAP2 POP POP JUMP JUMPDEST PUSH1 0x0 PUSH1 0x20 DUP3 ADD SWAP1 POP PUSH2 0x179 PUSH1 0x0 DUP4 ADD DUP5 PUSH2 0x13A JUMP JUMPDEST SWAP3 SWAP2 POP POP JUMP JUMPDEST PUSH1 0x0 DUP2 SWAP1 POP SWAP2 SWAP1 POP JUMP JUMPDEST PUSH1 0x0 DUP2 SWAP1 POP SWAP2 SWAP1 POP JUMP JUMPDEST PUSH1 0x0 DUP1 REVERT JUMPDEST PUSH2 0x1A1 DUP2 PUSH2 0x17F JUMP JUMPDEST DUP2 EQ PUSH2 0x1AC JUMPI PUSH1 0x0 DUP1 REVERT JUMPDEST POP JUMP INVALID LOG2 PUSH5 0x6970667358 0x22 SLT KECCAK256 0x22 0xD2 DIFFICULTY BLOCKHASH CREATE PUSH17 0x5A1225032AFF545FDE333FB3B3AD90C7CD 0xD2 LOG1 0xD4 0xE8 PUSH4 0x2E7DD557 PUSH5 0x736F6C6343 STOP ADDMOD SMOD STOP CALLER "
				},
				"gasEstimates": {
					"creation": {
						"codeDepositCost": "97000",
						"executionCost": "147",
						"totalCost": "97147"
					},
					"external": {
						"example(int256)": "infinite",
						"ternary(int256)": "642"
					}
				},
				"methodIdentifiers": {
					"example(int256)": "0eeec544",
					"ternary(int256)": "f821d152"
				}
			},
			"storageLayout": {
				"storage": [],
				"types": null
			},
			"userdoc": {
				"kind": "user",
				"methods": {},
				"version": 1
			}
		}
	}
}